:1000000002052F007508DAD508FD220205BBC2ECF7
:10001000120003D2EC12094AA2ECB3920A1209515F
:10002000A20A2202079CE709F608DFFA8046E709E0
:10003000F208DFFA803E88828C83E709F0A3DFFABA
:100040008032E309F608DFFA8078E309F208DFFA84
:10005000807088828C83E309F0A3DFFA8064898250
:100060008A83E0A3F608DFFA805889828A83E0A3B6
:10007000F208DFFA804C80D280FA80C680D4806992
:1000800080F28033801080A680EA809A80A880DA8F
:1000900080E280CA803389828A83ECFAE493A3C821
:1000A000C582C8CCC583CCF0A3C8C582C8CCC583E3
:1000B000CCDFE9DEE7800D89828A83E493A3F6082A
:1000C000DFF9ECFAA9F0EDFB2289828A83ECFAE0F1
:1000D000A3C8C582C8CCC583CCF0A3C8C582C8CC90
:1000E000C583CCDFEADEE880DB89828A83E493A3E0
:1000F000F208DFF980CC88F0EF60010E4E60C38813
:10010000F0ED2402B4040050B9F582EB2402B404EB
:100110000050AF232345822390007673BB010689EC
:10012000828A83E0225002E722BBFE02E322898218
:100130008A83E49322BB010CE58229F582E5833AA8
:10014000F583E0225006E92582F8E622BBFE06E9A7
:100150002582F8E222E58229F582E5833AF583E4F7
:100160009322F8BB010DE58229F582E5833AF583F8
:10017000E8F0225006E92582C8F622BBFE05E925F3
:1001800082C8F222C5F0F8A3E028F0C5F0F8E582B5
:10019000158270021583E038F022E88FF0A4CC8B32
:1001A000F0A42CFCE98EF0A42CFC8AF0EDA42CFC2D
:1001B000EA8EF0A4CDA8F08BF0A42DCC3825F0FD6C
:1001C000E98FF0A42CCD35F0FCEB8EF0A4FEA9F065
:1001D000EB8FF0A4CFC5F02ECD39FEE43CFCEAA4B1
:1001E0002DCE35F0FDE43CFC2275F008758200EF61
:1001F0002FFFEE33FECD33CDCC33CCC58233C58259
:100200009BED9AEC99E58298400CF582EE9BFEED11
:100210009AFDEC99FC0FD5F0D6E4CEFBE4CDFAE4E0
:10022000CCF9A88222B800C1B90059BA002DEC8BD4
:10023000F084CFCECDFCE5F0CBF97818EF2FFFEEB0
:1002400033FEED33FDEC33FCEB33FB10D703994069
:1002500004EB99FB0FD8E5E4F9FA227818EF2FFFA9
:10026000EE33FEED33FDEC33FCC933C910D7059BEB
:10027000E99A4007EC9BFCE99AF90FD8E0E4C9FA47
:10028000E4CCFB2275F010EF2FFFEE33FEED33FDD3
:10029000CC33CCC833C810D7079BEC9AE899400AF6
:1002A000ED9BFDEC9AFCE899F80FD5F0DAE4CDFB74
:1002B000E4CCFAE4C8F922C3E49FFFE49EFEE49D87
:1002C000FDE49CFC22EB9FF5F0EA9E42F0E99D42A2
:1002D000F0EC6480C864809845F022EB9FF5F0EA6A
:1002E0009E42F0E99D42F0E89C45F022ECF0A3ED3F
:1002F000F0A3EEF0A3EFF022A8828583F0D083D0A4
:100300008212030F12030F12030F12030FE473E4A0
:1003100093A3C583C5F0C583C8C582C8F0A3C583B0
:10032000C5F0C583C8C582C8228A838982E47390D8
:100330000001EFF0A3EDF09000131202F8000000AE
:1003400001E4900017F0900003E0FCEC33502A9099
:100350000017E0FF04F074072FF582E43400F58302
:10036000742DF0900003E0FCA3E0FDA3E0FEA3E009
:10037000FF1202B79000038041900013E0F8A3E061
:10038000F9A3E0FAA3E0FB900003E0FCA3E0FDA3E7
:10039000E0FEA3E0FF120758E47B0AFAF9F8D31253
:1003A00002C5501B900013E0FCA3E0FDA3E0FEA3F8
:1003B000E0FFE4F812019A9000131202EC80BAE414
:1003C000FFFEFDFC900013E0F8A3E0F9A3E0FAA320
:1003D000E0FBD31202C5407A900013E0F8900003CE
:1003E000E0FCA3E0FDA3E0FEA3E0FF120758EF242A
:1003F00030FF900017E0FE04F074072EF582E4341D
:1004000000F583EFF0900003E0FCA3E0FDA3E0FE25
:10041000A3E0FF900013E0F8A3E0F9A3E0FAA3E063
:10042000FB120758AC00AD01AE02AF0390000312FF
:1004300002EC900013E0FCA3E0FDA3E0FEA3E0FFCC
:10044000E47B0AFAF9F81207589000131202EC0242
:1004500003BF900017E02407F582E43400F583E43D
:10046000F0900001E0FFA3E0FD7B017A0079070234
:100470000472900018EFF0A3EDF0A3EBF0A3EAF004
:10048000A3E9F090001E7420F0A37402F07B017ABF
:1004900000791EFD120701900019E025E012083FC7
:1004A000E490001DF090001AE0FBA3E0FAA3E0F94D
:1004B000A3E0FFF582758300120135FE60249000F1
:1004C00018E0FDC374109DFDEFC39D5015EE75F04F
:1004D00010A42466F974071206A390001DE004F02E
:1004E00080C3900019E025E00412083FE490001D4D
:1004F000F090001AE0FBA3E0FAA3E0F9A3E0FFF517
:1005000082758300120135FE6024900018E0FDC35F
:1005100074109DFDEFC39D5015EE75F010A4246E70
:10052000F974071206A390001DE004F080C322783E
:100530007FE4F6D8FD7581210205760208B7E493C1
:10054000A3F8E493A34003F68001F208DFF48029C6
:10055000E493A3F85407240CC8C333C4540F4420B5
:10056000C8834004F456800146F6DFE4800B0102A4
:100570000408102040809008DCE47E019360BCA356
:10058000FF543F30E509541FFEE493A360010ECFF2
:1005900054C025E060A840B8E493A3FAE493A3F81C
:1005A000E493A3C8C582C8CAC583CAF0A3C8C582DC
:1005B000C8CAC583CADFE9DEE780BEC0E0C0F0C0BC
:1005C00083C082C0D075D000C000C001C002C0038B
:1005D000C004C005C006C007758A66758CFC900013
:1005E00000E4F0900000E0FFC394045038EF75F091
:1005F00003A4244CF582E43400F583E0FBA3E0FA85
:10060000A3E04A4B6017EF75F003A4244CF582E495
:100610003400F583A3E0FAA3E0F912032990000067
:10062000E004F080BED007D006D005D004D003D0BF
:1006300002D001D000D0D0D082D083D0F0D0E03230
:1006400078037C007D017BFF7A0F79567E007F085E
:100650001200F69000017420F0E4A3F07B017A0010
:1006600079017D021207011209397F7812091412EB
:10067000092C7F4012091412092CE490000BF0A3FE
:10068000F0E4FF12091412092C90000CE004F07041
:100690000690000BE004F0C390000BE0940440E1EE
:1006A00002095F35F0FA7BFF7D08900020EBF0A394
:1006B000EAF0A3E9F0A3EDF01209397F78120914EA
:1006C00012092C7F4012091412092CE4900024F026
:1006D000900023E0FFA3E0FEC39F5022900020E0A3
:1006E000FBA3E0FAA3E0F98E82758300120135FFC7
:1006F00012091412092C900024E004F080D202099F
:100700005F900023EBF0A3EAF0A3E9F0A3EDF01271
:1007100009397F7812091412092CE4FF1209141206
:10072000092CE4900027F0900026E0FFA3E0FEC330
:100730009F5022900023E0FBA3E0FAA3E0F98E8211
:10074000758300120135FF12091412092C9000273D
:10075000E004F080D202095FC2D5E830E70FB2D5DD
:10076000E4C39BFBE49AFAE499F9E498F8EC30E7E7
:1007700017B2D512078E120225E4C39BFBE49AFA46
:10078000E499F9E498F8800312022530D50DE4C30A
:100790009FFFE49EFEE49DFDE49CFC22C0E0C0833C
:1007A000C082C0D075D000C00730981BC29890009E
:1007B00039E0FF04F074292FF582E43400F583E575
:1007C00099F0900028E4F0309904C209C299D0074A
:1007D000D0D0D082D083D0E03212000E7FCC12086D
:1007E0006A7F4412086A12000E7FCC12086A7FBE2C
:1007F00012086A12080D900001EFF012080DEFC404
:1008000054F0FF900001E0C4540F4FFF22E4900029
:1008100002F0A3F0C2ECD2EC120958900002E0FF03
:10082000C313F030EC04E04480F01209429000035E
:10083000E004F0E0C3940840DB900002E0FF22FFF8
:10084000900018E075F008A4FDEF44B0900020F08F
:10085000ED540FA3F0AF05EFC4540F4410A3F07B89
:10086000017A0079207D03020701900002EFF0E495
:10087000A3F0C2EC900002E0FF1392ECEFC313F080
:1008800012094AD2EC900003E004F0E0C39408405F
:10089000E12290000174AEF0A374C8F0A374A1F03B
:1008A000A3748DF0A37414F0A374AFF07B017A00ED
:1008B00079017D060207011208921206401207D93B
:1008C000EF3395E0FEFDFC9000031202ECE4FDFF27
:1008D00012032F7FF47E011208FA80E1C109410062
:1008E000280041003900C1084A00423F065B4F66BC
:1008F0006D7D077F6F4100580000D3EF9400EE94A8
:10090000004010EF1F70011E007D027CC7DCFEDD81
:10091000FC80E7228F20E4FFA2079296E52025E0E5
:10092000F520D297C2970FEFB408ED22D296D29756
:10093000A296920AC297A20A22D297D296C296C2D1
:10094000972200750814D508FD22750819D508FDF1
:10095000227508BFD508FD22750802D508FD22C200
:1009600096D297D2962200000000000000000000FE
:10097000000000000000000000F80000000000007F
:1009800000333000000000100C06100C06000000C0
:1009900000000000000040C07840C0784000043FE4
:1009A00004043F040400007088FC083000000018B4
:1009B00020FF211E0000F008F000E01800000021D8
:1009C0001C031E211E0000F00888700000001E217C
:1009D00023241927211010160E000000000000002B
:1009E000000000000000000000E018040200000009
:1009F00000071820400000020418E000000000403A
:100A0000201807000000404080F0804040000202B3
:100A1000010F01020200000000F0000000000101CF
:100A2000011F01010100000000000000000080B073
:100A30007000000000000000000000000000000145
:100A40000101010101010000000000000000003070
:100A5000300000000000000000008060180400600A
:100A600018060100000000E010080810E000000F68
:100A7000102020100F00001010F8000000000020CF
:100A8000203F202000000070080808887000003017
:100A900028242221300000300888884830000018BF
:100AA000202020110E000000C02010F800000007D8
:100AB0000424243F240000F808888808080000194E
:100AC000212020110E0000E0108888180000000F7F
:100AD000112020110E0000380808C8380800000056
:100AE000003F000000000070880808887000001CAB
:100AF000222121221C0000E010080810E000000064
:100B0000312222110F00000000C0C00000000000D0
:100B100000303000000000000080000000000000F5
:100B200080600000000000008040201008000001EC
:100B300002040810200040404040404040000404AF
:100B40000404040404000008102040800000002079
:100B5000100804020100007048080808F0000000B6
:100B6000003036010000C030C828E810E000071847
:100B7000272423140B000000C038E0000000203CB4
:100B800023020227382008F8888888700000203F58
:100B9000202020110E00C03008080808380007186F
:100BA00020202010080008F808080810E000203F66
:100BB000202020100F0008F88888E8081000203F47
:100BC00020202320180008F88888E8081000203F1B
:100BD000200003000000C030080808380000071893
:100BE0002020221E020008F808000008F808203F14
:100BF000210101213F20000808F80808000000201A
:100C0000203F2020000000000808F8080800C080ED
:100C100080807F00000008F888C028180800203F66
:100C200020012638200008F8080000000000203FBE
:100C300020202020300008F8F800F8F80800203FB5
:100C4000003F003F200008F830C00008F808203FAF
:100C5000200007183F00E01008080810E0000F10FF
:100C6000202020100F0008F808080808F000203F96
:100C7000210101010000E01008080810E0000F1831
:100C8000242438504F0008F8888888887000203F56
:100C90002000030C30200070880808083800003855
:100CA000202121221C00180808F80808180000005C
:100CB000203F2000000008F808000008F808001F86
:100CC000202020201F000878880000C83808000075
:100CD00007380E010000F80800F80008F800033C8F
:100CE0000700073C03000818688080681808203057
:100CF0002C03032C30200838C800C8380800000036
:100D0000203F2000000010080808C83808002038DC
:100D1000262120201800000000FE02020200000030
:100D2000007F40404000000C30C000000000000088
:100D300000010638C00000020202FE000000004070
:100D400040407F0000000000040202020400000096
:100D50000000000000000000000000000000808093
:100D6000808080808080000202040000000000007B
:100D7000000000000000000080808080000000195A
:100D8000242222223F2008F8008080000000003F3B
:100D9000112020110E000000008080800000000E55
:100DA000112020201100000000808088F800000E33
:100DB000112020103F200000808080800000001F54
:100DC000222222221300008080F0888888180020C8
:100DD000203F202000000000808080808000006B89
:100DE00094949493600008F8008080800000203F75
:100DF000210000203F200080989800000000002083
:100E0000203F20200000000000809898000000C0D3
:100E10008080807F000008F8000080808000203FF4
:100E200024022D302000000808F8000000000020F7
:100E3000203F202000008080808080808000203F34
:100E400020003F20003F8080008080800000203F05
:100E5000210000203F200000808080800000001FD3
:100E6000202020201F00808000808000000080FF64
:100E7000A12020110E000000008080808000000E64
:100E8000112020A0FF8080808000808080002020B2
:100E90003F2120000100000080808080800000331E
:100EA000242424241900008080E0808000000000B9
:100EB000001F202000008080000000808000001FB4
:100EC000202020103F208080800000808080000152
:100ED0000E300806010080800080008080800F3086
:100EE0000C030C300F000080800080808000002008
:100EF000312E0E3120008080800000808080808133
:100F00008E701806010000808080808080000021A3
:100F1000302C2221300000000000807C0202000002
:100F20000000003F404000000000FF000000000003
:100F30000000FF0000000002027C80000000004072
:100F4000403F00000000000601010202040400000E
:0E0F5000000000000000000000000000000093
:00000001FF
